{
  "contractName": "smartapp",
  "abi": [
    {
      "inputs": [
        {
          "internalType": "uint256",
          "name": "",
          "type": "uint256"
        }
      ],
      "name": "patientarray",
      "outputs": [
        {
          "internalType": "uint256",
          "name": "patientid",
          "type": "uint256"
        },
        {
          "internalType": "string",
          "name": "fullname",
          "type": "string"
        },
        {
          "internalType": "string",
          "name": "adds",
          "type": "string"
        },
        {
          "internalType": "string",
          "name": "gender",
          "type": "string"
        }
      ],
      "stateMutability": "view",
      "type": "function",
      "constant": true
    },
    {
      "inputs": [
        {
          "internalType": "uint256",
          "name": "_patientid",
          "type": "uint256"
        },
        {
          "internalType": "string",
          "name": "_fullname",
          "type": "string"
        },
        {
          "internalType": "string",
          "name": "_adds",
          "type": "string"
        },
        {
          "internalType": "string",
          "name": "_gender",
          "type": "string"
        }
      ],
      "name": "addPatient",
      "outputs": [],
      "stateMutability": "nonpayable",
      "type": "function"
    }
  ],
  "bytecode": "0x608060405234801561001057600080fd5b5061097f806100206000396000f3fe608060405234801561001057600080fd5b50600436106100365760003560e01c8063bde9b3a41461003b578063fc25f3b014610057575b600080fd5b61005560048036038101906100509190610492565b61008a565b005b610071600480360381019061006c919061054d565b61012a565b6040516100819493929190610611565b60405180910390f35b600060405180608001604052808681526020018581526020018481526020018381525090806001815401808255809150506001900390600052602060002090600402016000909190919091506000820151816000015560208201518160010190816100f59190610877565b50604082015181600201908161010b9190610877565b5060608201518160030190816101219190610877565b50505050505050565b6000818154811061013a57600080fd5b90600052602060002090600402016000915090508060000154908060010180546101639061069a565b80601f016020809104026020016040519081016040528092919081815260200182805461018f9061069a565b80156101dc5780601f106101b1576101008083540402835291602001916101dc565b820191906000526020600020905b8154815290600101906020018083116101bf57829003601f168201915b5050505050908060020180546101f19061069a565b80601f016020809104026020016040519081016040528092919081815260200182805461021d9061069a565b801561026a5780601f1061023f5761010080835404028352916020019161026a565b820191906000526020600020905b81548152906001019060200180831161024d57829003601f168201915b50505050509080600301805461027f9061069a565b80601f01602080910402602001604051908101604052809291908181526020018280546102ab9061069a565b80156102f85780601f106102cd576101008083540402835291602001916102f8565b820191906000526020600020905b8154815290600101906020018083116102db57829003601f168201915b5050505050905084565b6000604051905090565b600080fd5b600080fd5b6000819050919050565b61032981610316565b811461033457600080fd5b50565b60008135905061034681610320565b92915050565b600080fd5b600080fd5b6000601f19601f8301169050919050565b7f4e487b7100000000000000000000000000000000000000000000000000000000600052604160045260246000fd5b61039f82610356565b810181811067ffffffffffffffff821117156103be576103bd610367565b5b80604052505050565b60006103d1610302565b90506103dd8282610396565b919050565b600067ffffffffffffffff8211156103fd576103fc610367565b5b61040682610356565b9050602081019050919050565b82818337600083830152505050565b6000610435610430846103e2565b6103c7565b90508281526020810184848401111561045157610450610351565b5b61045c848285610413565b509392505050565b600082601f8301126104795761047861034c565b5b8135610489848260208601610422565b91505092915050565b600080600080608085870312156104ac576104ab61030c565b5b60006104ba87828801610337565b945050602085013567ffffffffffffffff8111156104db576104da610311565b5b6104e787828801610464565b935050604085013567ffffffffffffffff81111561050857610507610311565b5b61051487828801610464565b925050606085013567ffffffffffffffff81111561053557610534610311565b5b61054187828801610464565b91505092959194509250565b6000602082840312156105635761056261030c565b5b600061057184828501610337565b91505092915050565b61058381610316565b82525050565b600081519050919050565b600082825260208201905092915050565b60005b838110156105c35780820151818401526020810190506105a8565b838111156105d2576000848401525b50505050565b60006105e382610589565b6105ed8185610594565b93506105fd8185602086016105a5565b61060681610356565b840191505092915050565b6000608082019050610626600083018761057a565b818103602083015261063881866105d8565b9050818103604083015261064c81856105d8565b9050818103606083015261066081846105d8565b905095945050505050565b7f4e487b7100000000000000000000000000000000000000000000000000000000600052602260045260246000fd5b600060028204905060018216806106b257607f821691505b6020821081036106c5576106c461066b565b5b50919050565b60008190508160005260206000209050919050565b60006020601f8301049050919050565b600082821b905092915050565b60006008830261072d7fffffffffffffffffffffffffffffffffffffffffffffffffffffffffffffffff826106f0565b61073786836106f0565b95508019841693508086168417925050509392505050565b6000819050919050565b600061077461076f61076a84610316565b61074f565b610316565b9050919050565b6000819050919050565b61078e83610759565b6107a261079a8261077b565b8484546106fd565b825550505050565b600090565b6107b76107aa565b6107c2818484610785565b505050565b5b818110156107e6576107db6000826107af565b6001810190506107c8565b5050565b601f82111561082b576107fc816106cb565b610805846106e0565b81016020851015610814578190505b610828610820856106e0565b8301826107c7565b50505b505050565b600082821c905092915050565b600061084e60001984600802610830565b1980831691505092915050565b6000610867838361083d565b9150826002028217905092915050565b61088082610589565b67ffffffffffffffff81111561089957610898610367565b5b6108a3825461069a565b6108ae8282856107ea565b600060209050601f8311600181146108e157600084156108cf578287015190505b6108d9858261085b565b865550610941565b601f1984166108ef866106cb565b60005b82811015610917578489015182556001820191506020850194506020810190506108f2565b868310156109345784890151610930601f89168261083d565b8355505b6001600288020188555050505b50505050505056fea2646970667358221220e65c342268f5fad2c54ec34e24796cdb7fc68d2aa63596702e5b1fee86af93ca64736f6c634300080f0033",
  "immutableReferences": {},
  "source": "// SPDX-License-Identifier: MIT\r\npragma solidity >=0.4.22 <0.9.0;\r\n\r\ncontract smartapp{\r\n\r\n\r\n   struct patient\r\n  {\r\n  \r\n      uint patientid;\r\n      string fullname;\r\n      string adds;\r\n      string gender;\r\n  \r\n  }\r\n  patient[] public patientarray;\r\n  function addPatient(uint _patientid,string memory _fullname,string memory _adds,string memory _gender) public {\r\n         patientarray.push(patient(_patientid,_fullname,_adds,_gender));\r\n  } \r\n}\r\n",
  "sourcePath": "C:\\Users\\123sa\\Desktop\\temp\\contracts\\app.sol",
  "compiler": {
    "name": "solc",
    "version": "0.8.15+commit.e14f2714.Emscripten.clang"
  },
  "schemaVersion": "3.4.7",
  "updatedAt": "2022-06-27T07:38:42.540Z",
  "networkType": "ethereum",
  "devdoc": {
    "kind": "dev",
    "methods": {},
    "version": 1
  },
  "userdoc": {
    "kind": "user",
    "methods": {},
    "version": 1
  }
}